{
	"data": {
		"bytecode": {
			"linkReferences": {},
			"object": "608060405234801561000f575f80fd5b50610f2f8061001d5f395ff3fe608060405234801561000f575f80fd5b5060043610610055575f3560e01c80632b2805db146100595780635b6beeb91461008c578063611e7cf8146100bc57806372b1e763146100d8578063fe35089f146100f4575b5f80fd5b610073600480360381019061006e9190610782565b610127565b60405161008394939291906108a8565b60405180910390f35b6100a660048036038101906100a19190610953565b610203565b6040516100b391906109ad565b60405180910390f35b6100d660048036038101906100d191906109c6565b610235565b005b6100f260048036038101906100ed9190610a44565b61042e565b005b61010e60048036038101906101099190610782565b6105f9565b60405161011e9493929190610aa1565b60405180910390f35b5f602052805f5260405f205f91509050805f01805461014590610b18565b80601f016020809104026020016040519081016040528092919081815260200182805461017190610b18565b80156101bc5780601f10610193576101008083540402835291602001916101bc565b820191905f5260205f20905b81548152906001019060200180831161019f57829003601f168201915b505050505090806001015f9054906101000a900473ffffffffffffffffffffffffffffffffffffffff1690806002015490806003015f9054906101000a900460ff16905084565b5f8282604051602001610217929190610b84565b60405160208183030381529060405280519060200120905092915050565b5f8484604051602001610249929190610b84565b6040516020818303038152906040528051906020012090505f808281526020019081526020015f206003015f9054906101000a900460ff16156102c1576040517f08c379a00000000000000000000000000000000000000000000000000000000081526004016102b890610be6565b60405180910390fd5b604051806080016040528084848080601f0160208091040260200160405190810160405280939291908181526020018383808284375f81840152601f19601f8201169050808301925050505050505081526020013373ffffffffffffffffffffffffffffffffffffffff168152602001428152602001600115158152505f808381526020019081526020015f205f820151815f0190816103619190610dce565b506020820151816001015f6101000a81548173ffffffffffffffffffffffffffffffffffffffff021916908373ffffffffffffffffffffffffffffffffffffffff160217905550604082015181600201556060820151816003015f6101000a81548160ff0219169083151502179055509050503373ffffffffffffffffffffffffffffffffffffffff16817f8beb0795ee44045d3c8bde68cd5b2e4daefe60cf990ae1e71c8ae5fb33a6bea185854260405161041f93929190610ec9565b60405180910390a35050505050565b5f808481526020019081526020015f206003015f9054906101000a900460ff161561048e576040517f08c379a000000000000000000000000000000000000000000000000000000000815260040161048590610be6565b60405180910390fd5b604051806080016040528083838080601f0160208091040260200160405190810160405280939291908181526020018383808284375f81840152601f19601f8201169050808301925050505050505081526020013373ffffffffffffffffffffffffffffffffffffffff168152602001428152602001600115158152505f808581526020019081526020015f205f820151815f01908161052e9190610dce565b506020820151816001015f6101000a81548173ffffffffffffffffffffffffffffffffffffffff021916908373ffffffffffffffffffffffffffffffffffffffff160217905550604082015181600201556060820151816003015f6101000a81548160ff0219169083151502179055509050503373ffffffffffffffffffffffffffffffffffffffff16837f8beb0795ee44045d3c8bde68cd5b2e4daefe60cf990ae1e71c8ae5fb33a6bea18484426040516105ec93929190610ec9565b60405180910390a3505050565b5f60605f805f805f8781526020019081526020015f206040518060800160405290815f8201805461062990610b18565b80601f016020809104026020016040519081016040528092919081815260200182805461065590610b18565b80156106a05780601f10610677576101008083540402835291602001916106a0565b820191905f5260205f20905b81548152906001019060200180831161068357829003601f168201915b50505050508152602001600182015f9054906101000a900473ffffffffffffffffffffffffffffffffffffffff1673ffffffffffffffffffffffffffffffffffffffff1673ffffffffffffffffffffffffffffffffffffffff16815260200160028201548152602001600382015f9054906101000a900460ff16151515158152505090508060600151815f0151826020015183604001519450945094509450509193509193565b5f80fd5b5f80fd5b5f819050919050565b6107618161074f565b811461076b575f80fd5b50565b5f8135905061077c81610758565b92915050565b5f6020828403121561079757610796610747565b5b5f6107a48482850161076e565b91505092915050565b5f81519050919050565b5f82825260208201905092915050565b5f5b838110156107e45780820151818401526020810190506107c9565b5f8484015250505050565b5f601f19601f8301169050919050565b5f610809826107ad565b61081381856107b7565b93506108238185602086016107c7565b61082c816107ef565b840191505092915050565b5f73ffffffffffffffffffffffffffffffffffffffff82169050919050565b5f61086082610837565b9050919050565b61087081610856565b82525050565b5f819050919050565b61088881610876565b82525050565b5f8115159050919050565b6108a28161088e565b82525050565b5f6080820190508181035f8301526108c081876107ff565b90506108cf6020830186610867565b6108dc604083018561087f565b6108e96060830184610899565b95945050505050565b5f80fd5b5f80fd5b5f80fd5b5f8083601f840112610913576109126108f2565b5b8235905067ffffffffffffffff8111156109305761092f6108f6565b5b60208301915083600182028301111561094c5761094b6108fa565b5b9250929050565b5f806020838503121561096957610968610747565b5b5f83013567ffffffffffffffff8111156109865761098561074b565b5b610992858286016108fe565b92509250509250929050565b6109a78161074f565b82525050565b5f6020820190506109c05f83018461099e565b92915050565b5f805f80604085870312156109de576109dd610747565b5b5f85013567ffffffffffffffff8111156109fb576109fa61074b565b5b610a07878288016108fe565b9450945050602085013567ffffffffffffffff811115610a2a57610a2961074b565b5b610a36878288016108fe565b925092505092959194509250565b5f805f60408486031215610a5b57610a5a610747565b5b5f610a688682870161076e565b935050602084013567ffffffffffffffff811115610a8957610a8861074b565b5b610a95868287016108fe565b92509250509250925092565b5f608082019050610ab45f830187610899565b8181036020830152610ac681866107ff565b9050610ad56040830185610867565b610ae2606083018461087f565b95945050505050565b7f4e487b71000000000000000000000000000000000000000000000000000000005f52602260045260245ffd5b5f6002820490506001821680610b2f57607f821691505b602082108103610b4257610b41610aeb565b5b50919050565b5f81905092915050565b828183375f83830152505050565b5f610b6b8385610b48565b9350610b78838584610b52565b82840190509392505050565b5f610b90828486610b60565b91508190509392505050565b7f446f63756d656e7420616c7265616479206973737565640000000000000000005f82015250565b5f610bd06017836107b7565b9150610bdb82610b9c565b602082019050919050565b5f6020820190508181035f830152610bfd81610bc4565b9050919050565b7f4e487b71000000000000000000000000000000000000000000000000000000005f52604160045260245ffd5b5f819050815f5260205f209050919050565b5f6020601f8301049050919050565b5f82821b905092915050565b5f60088302610c8d7fffffffffffffffffffffffffffffffffffffffffffffffffffffffffffffffff82610c52565b610c978683610c52565b95508019841693508086168417925050509392505050565b5f819050919050565b5f610cd2610ccd610cc884610876565b610caf565b610876565b9050919050565b5f819050919050565b610ceb83610cb8565b610cff610cf782610cd9565b848454610c5e565b825550505050565b5f90565b610d13610d07565b610d1e818484610ce2565b505050565b5b81811015610d4157610d365f82610d0b565b600181019050610d24565b5050565b601f821115610d8657610d5781610c31565b610d6084610c43565b81016020851015610d6f578190505b610d83610d7b85610c43565b830182610d23565b50505b505050565b5f82821c905092915050565b5f610da65f1984600802610d8b565b1980831691505092915050565b5f610dbe8383610d97565b9150826002028217905092915050565b610dd7826107ad565b67ffffffffffffffff811115610df057610def610c04565b5b610dfa8254610b18565b610e05828285610d45565b5f60209050601f831160018114610e36575f8415610e24578287015190505b610e2e8582610db3565b865550610e95565b601f198416610e4486610c31565b5f5b82811015610e6b57848901518255600182019150602085019450602081019050610e46565b86831015610e885784890151610e84601f891682610d97565b8355505b6001600288020188555050505b505050505050565b5f610ea883856107b7565b9350610eb5838584610b52565b610ebe836107ef565b840190509392505050565b5f6040820190508181035f830152610ee2818587610e9d565b9050610ef1602083018461087f565b94935050505056fea264697066735822122037e9906e465ba66e31cd05fbe195f258bf36efc5bd8a739841662e12dc819a1964736f6c63430008140033",
			"opcodes": "PUSH1 0x80 PUSH1 0x40 MSTORE CALLVALUE DUP1 ISZERO PUSH2 0xF JUMPI PUSH0 DUP1 REVERT JUMPDEST POP PUSH2 0xF2F DUP1 PUSH2 0x1D PUSH0 CODECOPY PUSH0 RETURN INVALID PUSH1 0x80 PUSH1 0x40 MSTORE CALLVALUE DUP1 ISZERO PUSH2 0xF JUMPI PUSH0 DUP1 REVERT JUMPDEST POP PUSH1 0x4 CALLDATASIZE LT PUSH2 0x55 JUMPI PUSH0 CALLDATALOAD PUSH1 0xE0 SHR DUP1 PUSH4 0x2B2805DB EQ PUSH2 0x59 JUMPI DUP1 PUSH4 0x5B6BEEB9 EQ PUSH2 0x8C JUMPI DUP1 PUSH4 0x611E7CF8 EQ PUSH2 0xBC JUMPI DUP1 PUSH4 0x72B1E763 EQ PUSH2 0xD8 JUMPI DUP1 PUSH4 0xFE35089F EQ PUSH2 0xF4 JUMPI JUMPDEST PUSH0 DUP1 REVERT JUMPDEST PUSH2 0x73 PUSH1 0x4 DUP1 CALLDATASIZE SUB DUP2 ADD SWAP1 PUSH2 0x6E SWAP2 SWAP1 PUSH2 0x782 JUMP JUMPDEST PUSH2 0x127 JUMP JUMPDEST PUSH1 0x40 MLOAD PUSH2 0x83 SWAP5 SWAP4 SWAP3 SWAP2 SWAP1 PUSH2 0x8A8 JUMP JUMPDEST PUSH1 0x40 MLOAD DUP1 SWAP2 SUB SWAP1 RETURN JUMPDEST PUSH2 0xA6 PUSH1 0x4 DUP1 CALLDATASIZE SUB DUP2 ADD SWAP1 PUSH2 0xA1 SWAP2 SWAP1 PUSH2 0x953 JUMP JUMPDEST PUSH2 0x203 JUMP JUMPDEST PUSH1 0x40 MLOAD PUSH2 0xB3 SWAP2 SWAP1 PUSH2 0x9AD JUMP JUMPDEST PUSH1 0x40 MLOAD DUP1 SWAP2 SUB SWAP1 RETURN JUMPDEST PUSH2 0xD6 PUSH1 0x4 DUP1 CALLDATASIZE SUB DUP2 ADD SWAP1 PUSH2 0xD1 SWAP2 SWAP1 PUSH2 0x9C6 JUMP JUMPDEST PUSH2 0x235 JUMP JUMPDEST STOP JUMPDEST PUSH2 0xF2 PUSH1 0x4 DUP1 CALLDATASIZE SUB DUP2 ADD SWAP1 PUSH2 0xED SWAP2 SWAP1 PUSH2 0xA44 JUMP JUMPDEST PUSH2 0x42E JUMP JUMPDEST STOP JUMPDEST PUSH2 0x10E PUSH1 0x4 DUP1 CALLDATASIZE SUB DUP2 ADD SWAP1 PUSH2 0x109 SWAP2 SWAP1 PUSH2 0x782 JUMP JUMPDEST PUSH2 0x5F9 JUMP JUMPDEST PUSH1 0x40 MLOAD PUSH2 0x11E SWAP5 SWAP4 SWAP3 SWAP2 SWAP1 PUSH2 0xAA1 JUMP JUMPDEST PUSH1 0x40 MLOAD DUP1 SWAP2 SUB SWAP1 RETURN JUMPDEST PUSH0 PUSH1 0x20 MSTORE DUP1 PUSH0 MSTORE PUSH1 0x40 PUSH0 KECCAK256 PUSH0 SWAP2 POP SWAP1 POP DUP1 PUSH0 ADD DUP1 SLOAD PUSH2 0x145 SWAP1 PUSH2 0xB18 JUMP JUMPDEST DUP1 PUSH1 0x1F ADD PUSH1 0x20 DUP1 SWAP2 DIV MUL PUSH1 0x20 ADD PUSH1 0x40 MLOAD SWAP1 DUP2 ADD PUSH1 0x40 MSTORE DUP1 SWAP3 SWAP2 SWAP1 DUP2 DUP2 MSTORE PUSH1 0x20 ADD DUP3 DUP1 SLOAD PUSH2 0x171 SWAP1 PUSH2 0xB18 JUMP JUMPDEST DUP1 ISZERO PUSH2 0x1BC JUMPI DUP1 PUSH1 0x1F LT PUSH2 0x193 JUMPI PUSH2 0x100 DUP1 DUP4 SLOAD DIV MUL DUP4 MSTORE SWAP2 PUSH1 0x20 ADD SWAP2 PUSH2 0x1BC JUMP JUMPDEST DUP3 ADD SWAP2 SWAP1 PUSH0 MSTORE PUSH1 0x20 PUSH0 KECCAK256 SWAP1 JUMPDEST DUP2 SLOAD DUP2 MSTORE SWAP1 PUSH1 0x1 ADD SWAP1 PUSH1 0x20 ADD DUP1 DUP4 GT PUSH2 0x19F JUMPI DUP3 SWAP1 SUB PUSH1 0x1F AND DUP3 ADD SWAP2 JUMPDEST POP POP POP POP POP SWAP1 DUP1 PUSH1 0x1 ADD PUSH0 SWAP1 SLOAD SWAP1 PUSH2 0x100 EXP SWAP1 DIV PUSH20 0xFFFFFFFFFFFFFFFFFFFFFFFFFFFFFFFFFFFFFFFF AND SWAP1 DUP1 PUSH1 0x2 ADD SLOAD SWAP1 DUP1 PUSH1 0x3 ADD PUSH0 SWAP1 SLOAD SWAP1 PUSH2 0x100 EXP SWAP1 DIV PUSH1 0xFF AND SWAP1 POP DUP5 JUMP JUMPDEST PUSH0 DUP3 DUP3 PUSH1 0x40 MLOAD PUSH1 0x20 ADD PUSH2 0x217 SWAP3 SWAP2 SWAP1 PUSH2 0xB84 JUMP JUMPDEST PUSH1 0x40 MLOAD PUSH1 0x20 DUP2 DUP4 SUB SUB DUP2 MSTORE SWAP1 PUSH1 0x40 MSTORE DUP1 MLOAD SWAP1 PUSH1 0x20 ADD KECCAK256 SWAP1 POP SWAP3 SWAP2 POP POP JUMP JUMPDEST PUSH0 DUP5 DUP5 PUSH1 0x40 MLOAD PUSH1 0x20 ADD PUSH2 0x249 SWAP3 SWAP2 SWAP1 PUSH2 0xB84 JUMP JUMPDEST PUSH1 0x40 MLOAD PUSH1 0x20 DUP2 DUP4 SUB SUB DUP2 MSTORE SWAP1 PUSH1 0x40 MSTORE DUP1 MLOAD SWAP1 PUSH1 0x20 ADD KECCAK256 SWAP1 POP PUSH0 DUP1 DUP3 DUP2 MSTORE PUSH1 0x20 ADD SWAP1 DUP2 MSTORE PUSH1 0x20 ADD PUSH0 KECCAK256 PUSH1 0x3 ADD PUSH0 SWAP1 SLOAD SWAP1 PUSH2 0x100 EXP SWAP1 DIV PUSH1 0xFF AND ISZERO PUSH2 0x2C1 JUMPI PUSH1 0x40 MLOAD PUSH32 0x8C379A000000000000000000000000000000000000000000000000000000000 DUP2 MSTORE PUSH1 0x4 ADD PUSH2 0x2B8 SWAP1 PUSH2 0xBE6 JUMP JUMPDEST PUSH1 0x40 MLOAD DUP1 SWAP2 SUB SWAP1 REVERT JUMPDEST PUSH1 0x40 MLOAD DUP1 PUSH1 0x80 ADD PUSH1 0x40 MSTORE DUP1 DUP5 DUP5 DUP1 DUP1 PUSH1 0x1F ADD PUSH1 0x20 DUP1 SWAP2 DIV MUL PUSH1 0x20 ADD PUSH1 0x40 MLOAD SWAP1 DUP2 ADD PUSH1 0x40 MSTORE DUP1 SWAP4 SWAP3 SWAP2 SWAP1 DUP2 DUP2 MSTORE PUSH1 0x20 ADD DUP4 DUP4 DUP1 DUP3 DUP5 CALLDATACOPY PUSH0 DUP2 DUP5 ADD MSTORE PUSH1 0x1F NOT PUSH1 0x1F DUP3 ADD AND SWAP1 POP DUP1 DUP4 ADD SWAP3 POP POP POP POP POP POP POP DUP2 MSTORE PUSH1 0x20 ADD CALLER PUSH20 0xFFFFFFFFFFFFFFFFFFFFFFFFFFFFFFFFFFFFFFFF AND DUP2 MSTORE PUSH1 0x20 ADD TIMESTAMP DUP2 MSTORE PUSH1 0x20 ADD PUSH1 0x1 ISZERO ISZERO DUP2 MSTORE POP PUSH0 DUP1 DUP4 DUP2 MSTORE PUSH1 0x20 ADD SWAP1 DUP2 MSTORE PUSH1 0x20 ADD PUSH0 KECCAK256 PUSH0 DUP3 ADD MLOAD DUP2 PUSH0 ADD SWAP1 DUP2 PUSH2 0x361 SWAP2 SWAP1 PUSH2 0xDCE JUMP JUMPDEST POP PUSH1 0x20 DUP3 ADD MLOAD DUP2 PUSH1 0x1 ADD PUSH0 PUSH2 0x100 EXP DUP2 SLOAD DUP2 PUSH20 0xFFFFFFFFFFFFFFFFFFFFFFFFFFFFFFFFFFFFFFFF MUL NOT AND SWAP1 DUP4 PUSH20 0xFFFFFFFFFFFFFFFFFFFFFFFFFFFFFFFFFFFFFFFF AND MUL OR SWAP1 SSTORE POP PUSH1 0x40 DUP3 ADD MLOAD DUP2 PUSH1 0x2 ADD SSTORE PUSH1 0x60 DUP3 ADD MLOAD DUP2 PUSH1 0x3 ADD PUSH0 PUSH2 0x100 EXP DUP2 SLOAD DUP2 PUSH1 0xFF MUL NOT AND SWAP1 DUP4 ISZERO ISZERO MUL OR SWAP1 SSTORE POP SWAP1 POP POP CALLER PUSH20 0xFFFFFFFFFFFFFFFFFFFFFFFFFFFFFFFFFFFFFFFF AND DUP2 PUSH32 0x8BEB0795EE44045D3C8BDE68CD5B2E4DAEFE60CF990AE1E71C8AE5FB33A6BEA1 DUP6 DUP6 TIMESTAMP PUSH1 0x40 MLOAD PUSH2 0x41F SWAP4 SWAP3 SWAP2 SWAP1 PUSH2 0xEC9 JUMP JUMPDEST PUSH1 0x40 MLOAD DUP1 SWAP2 SUB SWAP1 LOG3 POP POP POP POP POP JUMP JUMPDEST PUSH0 DUP1 DUP5 DUP2 MSTORE PUSH1 0x20 ADD SWAP1 DUP2 MSTORE PUSH1 0x20 ADD PUSH0 KECCAK256 PUSH1 0x3 ADD PUSH0 SWAP1 SLOAD SWAP1 PUSH2 0x100 EXP SWAP1 DIV PUSH1 0xFF AND ISZERO PUSH2 0x48E JUMPI PUSH1 0x40 MLOAD PUSH32 0x8C379A000000000000000000000000000000000000000000000000000000000 DUP2 MSTORE PUSH1 0x4 ADD PUSH2 0x485 SWAP1 PUSH2 0xBE6 JUMP JUMPDEST PUSH1 0x40 MLOAD DUP1 SWAP2 SUB SWAP1 REVERT JUMPDEST PUSH1 0x40 MLOAD DUP1 PUSH1 0x80 ADD PUSH1 0x40 MSTORE DUP1 DUP4 DUP4 DUP1 DUP1 PUSH1 0x1F ADD PUSH1 0x20 DUP1 SWAP2 DIV MUL PUSH1 0x20 ADD PUSH1 0x40 MLOAD SWAP1 DUP2 ADD PUSH1 0x40 MSTORE DUP1 SWAP4 SWAP3 SWAP2 SWAP1 DUP2 DUP2 MSTORE PUSH1 0x20 ADD DUP4 DUP4 DUP1 DUP3 DUP5 CALLDATACOPY PUSH0 DUP2 DUP5 ADD MSTORE PUSH1 0x1F NOT PUSH1 0x1F DUP3 ADD AND SWAP1 POP DUP1 DUP4 ADD SWAP3 POP POP POP POP POP POP POP DUP2 MSTORE PUSH1 0x20 ADD CALLER PUSH20 0xFFFFFFFFFFFFFFFFFFFFFFFFFFFFFFFFFFFFFFFF AND DUP2 MSTORE PUSH1 0x20 ADD TIMESTAMP DUP2 MSTORE PUSH1 0x20 ADD PUSH1 0x1 ISZERO ISZERO DUP2 MSTORE POP PUSH0 DUP1 DUP6 DUP2 MSTORE PUSH1 0x20 ADD SWAP1 DUP2 MSTORE PUSH1 0x20 ADD PUSH0 KECCAK256 PUSH0 DUP3 ADD MLOAD DUP2 PUSH0 ADD SWAP1 DUP2 PUSH2 0x52E SWAP2 SWAP1 PUSH2 0xDCE JUMP JUMPDEST POP PUSH1 0x20 DUP3 ADD MLOAD DUP2 PUSH1 0x1 ADD PUSH0 PUSH2 0x100 EXP DUP2 SLOAD DUP2 PUSH20 0xFFFFFFFFFFFFFFFFFFFFFFFFFFFFFFFFFFFFFFFF MUL NOT AND SWAP1 DUP4 PUSH20 0xFFFFFFFFFFFFFFFFFFFFFFFFFFFFFFFFFFFFFFFF AND MUL OR SWAP1 SSTORE POP PUSH1 0x40 DUP3 ADD MLOAD DUP2 PUSH1 0x2 ADD SSTORE PUSH1 0x60 DUP3 ADD MLOAD DUP2 PUSH1 0x3 ADD PUSH0 PUSH2 0x100 EXP DUP2 SLOAD DUP2 PUSH1 0xFF MUL NOT AND SWAP1 DUP4 ISZERO ISZERO MUL OR SWAP1 SSTORE POP SWAP1 POP POP CALLER PUSH20 0xFFFFFFFFFFFFFFFFFFFFFFFFFFFFFFFFFFFFFFFF AND DUP4 PUSH32 0x8BEB0795EE44045D3C8BDE68CD5B2E4DAEFE60CF990AE1E71C8AE5FB33A6BEA1 DUP5 DUP5 TIMESTAMP PUSH1 0x40 MLOAD PUSH2 0x5EC SWAP4 SWAP3 SWAP2 SWAP1 PUSH2 0xEC9 JUMP JUMPDEST PUSH1 0x40 MLOAD DUP1 SWAP2 SUB SWAP1 LOG3 POP POP POP JUMP JUMPDEST PUSH0 PUSH1 0x60 PUSH0 DUP1 PUSH0 DUP1 PUSH0 DUP8 DUP2 MSTORE PUSH1 0x20 ADD SWAP1 DUP2 MSTORE PUSH1 0x20 ADD PUSH0 KECCAK256 PUSH1 0x40 MLOAD DUP1 PUSH1 0x80 ADD PUSH1 0x40 MSTORE SWAP1 DUP2 PUSH0 DUP3 ADD DUP1 SLOAD PUSH2 0x629 SWAP1 PUSH2 0xB18 JUMP JUMPDEST DUP1 PUSH1 0x1F ADD PUSH1 0x20 DUP1 SWAP2 DIV MUL PUSH1 0x20 ADD PUSH1 0x40 MLOAD SWAP1 DUP2 ADD PUSH1 0x40 MSTORE DUP1 SWAP3 SWAP2 SWAP1 DUP2 DUP2 MSTORE PUSH1 0x20 ADD DUP3 DUP1 SLOAD PUSH2 0x655 SWAP1 PUSH2 0xB18 JUMP JUMPDEST DUP1 ISZERO PUSH2 0x6A0 JUMPI DUP1 PUSH1 0x1F LT PUSH2 0x677 JUMPI PUSH2 0x100 DUP1 DUP4 SLOAD DIV MUL DUP4 MSTORE SWAP2 PUSH1 0x20 ADD SWAP2 PUSH2 0x6A0 JUMP JUMPDEST DUP3 ADD SWAP2 SWAP1 PUSH0 MSTORE PUSH1 0x20 PUSH0 KECCAK256 SWAP1 JUMPDEST DUP2 SLOAD DUP2 MSTORE SWAP1 PUSH1 0x1 ADD SWAP1 PUSH1 0x20 ADD DUP1 DUP4 GT PUSH2 0x683 JUMPI DUP3 SWAP1 SUB PUSH1 0x1F AND DUP3 ADD SWAP2 JUMPDEST POP POP POP POP POP DUP2 MSTORE PUSH1 0x20 ADD PUSH1 0x1 DUP3 ADD PUSH0 SWAP1 SLOAD SWAP1 PUSH2 0x100 EXP SWAP1 DIV PUSH20 0xFFFFFFFFFFFFFFFFFFFFFFFFFFFFFFFFFFFFFFFF AND PUSH20 0xFFFFFFFFFFFFFFFFFFFFFFFFFFFFFFFFFFFFFFFF AND PUSH20 0xFFFFFFFFFFFFFFFFFFFFFFFFFFFFFFFFFFFFFFFF AND DUP2 MSTORE PUSH1 0x20 ADD PUSH1 0x2 DUP3 ADD SLOAD DUP2 MSTORE PUSH1 0x20 ADD PUSH1 0x3 DUP3 ADD PUSH0 SWAP1 SLOAD SWAP1 PUSH2 0x100 EXP SWAP1 DIV PUSH1 0xFF AND ISZERO ISZERO ISZERO ISZERO DUP2 MSTORE POP POP SWAP1 POP DUP1 PUSH1 0x60 ADD MLOAD DUP2 PUSH0 ADD MLOAD DUP3 PUSH1 0x20 ADD MLOAD DUP4 PUSH1 0x40 ADD MLOAD SWAP5 POP SWAP5 POP SWAP5 POP SWAP5 POP POP SWAP2 SWAP4 POP SWAP2 SWAP4 JUMP JUMPDEST PUSH0 DUP1 REVERT JUMPDEST PUSH0 DUP1 REVERT JUMPDEST PUSH0 DUP2 SWAP1 POP SWAP2 SWAP1 POP JUMP JUMPDEST PUSH2 0x761 DUP2 PUSH2 0x74F JUMP JUMPDEST DUP2 EQ PUSH2 0x76B JUMPI PUSH0 DUP1 REVERT JUMPDEST POP JUMP JUMPDEST PUSH0 DUP2 CALLDATALOAD SWAP1 POP PUSH2 0x77C DUP2 PUSH2 0x758 JUMP JUMPDEST SWAP3 SWAP2 POP POP JUMP JUMPDEST PUSH0 PUSH1 0x20 DUP3 DUP5 SUB SLT ISZERO PUSH2 0x797 JUMPI PUSH2 0x796 PUSH2 0x747 JUMP JUMPDEST JUMPDEST PUSH0 PUSH2 0x7A4 DUP5 DUP3 DUP6 ADD PUSH2 0x76E JUMP JUMPDEST SWAP2 POP POP SWAP3 SWAP2 POP POP JUMP JUMPDEST PUSH0 DUP2 MLOAD SWAP1 POP SWAP2 SWAP1 POP JUMP JUMPDEST PUSH0 DUP3 DUP3 MSTORE PUSH1 0x20 DUP3 ADD SWAP1 POP SWAP3 SWAP2 POP POP JUMP JUMPDEST PUSH0 JUMPDEST DUP4 DUP2 LT ISZERO PUSH2 0x7E4 JUMPI DUP1 DUP3 ADD MLOAD DUP2 DUP5 ADD MSTORE PUSH1 0x20 DUP2 ADD SWAP1 POP PUSH2 0x7C9 JUMP JUMPDEST PUSH0 DUP5 DUP5 ADD MSTORE POP POP POP POP JUMP JUMPDEST PUSH0 PUSH1 0x1F NOT PUSH1 0x1F DUP4 ADD AND SWAP1 POP SWAP2 SWAP1 POP JUMP JUMPDEST PUSH0 PUSH2 0x809 DUP3 PUSH2 0x7AD JUMP JUMPDEST PUSH2 0x813 DUP2 DUP6 PUSH2 0x7B7 JUMP JUMPDEST SWAP4 POP PUSH2 0x823 DUP2 DUP6 PUSH1 0x20 DUP7 ADD PUSH2 0x7C7 JUMP JUMPDEST PUSH2 0x82C DUP2 PUSH2 0x7EF JUMP JUMPDEST DUP5 ADD SWAP2 POP POP SWAP3 SWAP2 POP POP JUMP JUMPDEST PUSH0 PUSH20 0xFFFFFFFFFFFFFFFFFFFFFFFFFFFFFFFFFFFFFFFF DUP3 AND SWAP1 POP SWAP2 SWAP1 POP JUMP JUMPDEST PUSH0 PUSH2 0x860 DUP3 PUSH2 0x837 JUMP JUMPDEST SWAP1 POP SWAP2 SWAP1 POP JUMP JUMPDEST PUSH2 0x870 DUP2 PUSH2 0x856 JUMP JUMPDEST DUP3 MSTORE POP POP JUMP JUMPDEST PUSH0 DUP2 SWAP1 POP SWAP2 SWAP1 POP JUMP JUMPDEST PUSH2 0x888 DUP2 PUSH2 0x876 JUMP JUMPDEST DUP3 MSTORE POP POP JUMP JUMPDEST PUSH0 DUP2 ISZERO ISZERO SWAP1 POP SWAP2 SWAP1 POP JUMP JUMPDEST PUSH2 0x8A2 DUP2 PUSH2 0x88E JUMP JUMPDEST DUP3 MSTORE POP POP JUMP JUMPDEST PUSH0 PUSH1 0x80 DUP3 ADD SWAP1 POP DUP2 DUP2 SUB PUSH0 DUP4 ADD MSTORE PUSH2 0x8C0 DUP2 DUP8 PUSH2 0x7FF JUMP JUMPDEST SWAP1 POP PUSH2 0x8CF PUSH1 0x20 DUP4 ADD DUP7 PUSH2 0x867 JUMP JUMPDEST PUSH2 0x8DC PUSH1 0x40 DUP4 ADD DUP6 PUSH2 0x87F JUMP JUMPDEST PUSH2 0x8E9 PUSH1 0x60 DUP4 ADD DUP5 PUSH2 0x899 JUMP JUMPDEST SWAP6 SWAP5 POP POP POP POP POP JUMP JUMPDEST PUSH0 DUP1 REVERT JUMPDEST PUSH0 DUP1 REVERT JUMPDEST PUSH0 DUP1 REVERT JUMPDEST PUSH0 DUP1 DUP4 PUSH1 0x1F DUP5 ADD SLT PUSH2 0x913 JUMPI PUSH2 0x912 PUSH2 0x8F2 JUMP JUMPDEST JUMPDEST DUP3 CALLDATALOAD SWAP1 POP PUSH8 0xFFFFFFFFFFFFFFFF DUP2 GT ISZERO PUSH2 0x930 JUMPI PUSH2 0x92F PUSH2 0x8F6 JUMP JUMPDEST JUMPDEST PUSH1 0x20 DUP4 ADD SWAP2 POP DUP4 PUSH1 0x1 DUP3 MUL DUP4 ADD GT ISZERO PUSH2 0x94C JUMPI PUSH2 0x94B PUSH2 0x8FA JUMP JUMPDEST JUMPDEST SWAP3 POP SWAP3 SWAP1 POP JUMP JUMPDEST PUSH0 DUP1 PUSH1 0x20 DUP4 DUP6 SUB SLT ISZERO PUSH2 0x969 JUMPI PUSH2 0x968 PUSH2 0x747 JUMP JUMPDEST JUMPDEST PUSH0 DUP4 ADD CALLDATALOAD PUSH8 0xFFFFFFFFFFFFFFFF DUP2 GT ISZERO PUSH2 0x986 JUMPI PUSH2 0x985 PUSH2 0x74B JUMP JUMPDEST JUMPDEST PUSH2 0x992 DUP6 DUP3 DUP7 ADD PUSH2 0x8FE JUMP JUMPDEST SWAP3 POP SWAP3 POP POP SWAP3 POP SWAP3 SWAP1 POP JUMP JUMPDEST PUSH2 0x9A7 DUP2 PUSH2 0x74F JUMP JUMPDEST DUP3 MSTORE POP POP JUMP JUMPDEST PUSH0 PUSH1 0x20 DUP3 ADD SWAP1 POP PUSH2 0x9C0 PUSH0 DUP4 ADD DUP5 PUSH2 0x99E JUMP JUMPDEST SWAP3 SWAP2 POP POP JUMP JUMPDEST PUSH0 DUP1 PUSH0 DUP1 PUSH1 0x40 DUP6 DUP8 SUB SLT ISZERO PUSH2 0x9DE JUMPI PUSH2 0x9DD PUSH2 0x747 JUMP JUMPDEST JUMPDEST PUSH0 DUP6 ADD CALLDATALOAD PUSH8 0xFFFFFFFFFFFFFFFF DUP2 GT ISZERO PUSH2 0x9FB JUMPI PUSH2 0x9FA PUSH2 0x74B JUMP JUMPDEST JUMPDEST PUSH2 0xA07 DUP8 DUP3 DUP9 ADD PUSH2 0x8FE JUMP JUMPDEST SWAP5 POP SWAP5 POP POP PUSH1 0x20 DUP6 ADD CALLDATALOAD PUSH8 0xFFFFFFFFFFFFFFFF DUP2 GT ISZERO PUSH2 0xA2A JUMPI PUSH2 0xA29 PUSH2 0x74B JUMP JUMPDEST JUMPDEST PUSH2 0xA36 DUP8 DUP3 DUP9 ADD PUSH2 0x8FE JUMP JUMPDEST SWAP3 POP SWAP3 POP POP SWAP3 SWAP6 SWAP2 SWAP5 POP SWAP3 POP JUMP JUMPDEST PUSH0 DUP1 PUSH0 PUSH1 0x40 DUP5 DUP7 SUB SLT ISZERO PUSH2 0xA5B JUMPI PUSH2 0xA5A PUSH2 0x747 JUMP JUMPDEST JUMPDEST PUSH0 PUSH2 0xA68 DUP7 DUP3 DUP8 ADD PUSH2 0x76E JUMP JUMPDEST SWAP4 POP POP PUSH1 0x20 DUP5 ADD CALLDATALOAD PUSH8 0xFFFFFFFFFFFFFFFF DUP2 GT ISZERO PUSH2 0xA89 JUMPI PUSH2 0xA88 PUSH2 0x74B JUMP JUMPDEST JUMPDEST PUSH2 0xA95 DUP7 DUP3 DUP8 ADD PUSH2 0x8FE JUMP JUMPDEST SWAP3 POP SWAP3 POP POP SWAP3 POP SWAP3 POP SWAP3 JUMP JUMPDEST PUSH0 PUSH1 0x80 DUP3 ADD SWAP1 POP PUSH2 0xAB4 PUSH0 DUP4 ADD DUP8 PUSH2 0x899 JUMP JUMPDEST DUP2 DUP2 SUB PUSH1 0x20 DUP4 ADD MSTORE PUSH2 0xAC6 DUP2 DUP7 PUSH2 0x7FF JUMP JUMPDEST SWAP1 POP PUSH2 0xAD5 PUSH1 0x40 DUP4 ADD DUP6 PUSH2 0x867 JUMP JUMPDEST PUSH2 0xAE2 PUSH1 0x60 DUP4 ADD DUP5 PUSH2 0x87F JUMP JUMPDEST SWAP6 SWAP5 POP POP POP POP POP JUMP JUMPDEST PUSH32 0x4E487B7100000000000000000000000000000000000000000000000000000000 PUSH0 MSTORE PUSH1 0x22 PUSH1 0x4 MSTORE PUSH1 0x24 PUSH0 REVERT JUMPDEST PUSH0 PUSH1 0x2 DUP3 DIV SWAP1 POP PUSH1 0x1 DUP3 AND DUP1 PUSH2 0xB2F JUMPI PUSH1 0x7F DUP3 AND SWAP2 POP JUMPDEST PUSH1 0x20 DUP3 LT DUP2 SUB PUSH2 0xB42 JUMPI PUSH2 0xB41 PUSH2 0xAEB JUMP JUMPDEST JUMPDEST POP SWAP2 SWAP1 POP JUMP JUMPDEST PUSH0 DUP2 SWAP1 POP SWAP3 SWAP2 POP POP JUMP JUMPDEST DUP3 DUP2 DUP4 CALLDATACOPY PUSH0 DUP4 DUP4 ADD MSTORE POP POP POP JUMP JUMPDEST PUSH0 PUSH2 0xB6B DUP4 DUP6 PUSH2 0xB48 JUMP JUMPDEST SWAP4 POP PUSH2 0xB78 DUP4 DUP6 DUP5 PUSH2 0xB52 JUMP JUMPDEST DUP3 DUP5 ADD SWAP1 POP SWAP4 SWAP3 POP POP POP JUMP JUMPDEST PUSH0 PUSH2 0xB90 DUP3 DUP5 DUP7 PUSH2 0xB60 JUMP JUMPDEST SWAP2 POP DUP2 SWAP1 POP SWAP4 SWAP3 POP POP POP JUMP JUMPDEST PUSH32 0x446F63756D656E7420616C726561647920697373756564000000000000000000 PUSH0 DUP3 ADD MSTORE POP JUMP JUMPDEST PUSH0 PUSH2 0xBD0 PUSH1 0x17 DUP4 PUSH2 0x7B7 JUMP JUMPDEST SWAP2 POP PUSH2 0xBDB DUP3 PUSH2 0xB9C JUMP JUMPDEST PUSH1 0x20 DUP3 ADD SWAP1 POP SWAP2 SWAP1 POP JUMP JUMPDEST PUSH0 PUSH1 0x20 DUP3 ADD SWAP1 POP DUP2 DUP2 SUB PUSH0 DUP4 ADD MSTORE PUSH2 0xBFD DUP2 PUSH2 0xBC4 JUMP JUMPDEST SWAP1 POP SWAP2 SWAP1 POP JUMP JUMPDEST PUSH32 0x4E487B7100000000000000000000000000000000000000000000000000000000 PUSH0 MSTORE PUSH1 0x41 PUSH1 0x4 MSTORE PUSH1 0x24 PUSH0 REVERT JUMPDEST PUSH0 DUP2 SWAP1 POP DUP2 PUSH0 MSTORE PUSH1 0x20 PUSH0 KECCAK256 SWAP1 POP SWAP2 SWAP1 POP JUMP JUMPDEST PUSH0 PUSH1 0x20 PUSH1 0x1F DUP4 ADD DIV SWAP1 POP SWAP2 SWAP1 POP JUMP JUMPDEST PUSH0 DUP3 DUP3 SHL SWAP1 POP SWAP3 SWAP2 POP POP JUMP JUMPDEST PUSH0 PUSH1 0x8 DUP4 MUL PUSH2 0xC8D PUSH32 0xFFFFFFFFFFFFFFFFFFFFFFFFFFFFFFFFFFFFFFFFFFFFFFFFFFFFFFFFFFFFFFFF DUP3 PUSH2 0xC52 JUMP JUMPDEST PUSH2 0xC97 DUP7 DUP4 PUSH2 0xC52 JUMP JUMPDEST SWAP6 POP DUP1 NOT DUP5 AND SWAP4 POP DUP1 DUP7 AND DUP5 OR SWAP3 POP POP POP SWAP4 SWAP3 POP POP POP JUMP JUMPDEST PUSH0 DUP2 SWAP1 POP SWAP2 SWAP1 POP JUMP JUMPDEST PUSH0 PUSH2 0xCD2 PUSH2 0xCCD PUSH2 0xCC8 DUP5 PUSH2 0x876 JUMP JUMPDEST PUSH2 0xCAF JUMP JUMPDEST PUSH2 0x876 JUMP JUMPDEST SWAP1 POP SWAP2 SWAP1 POP JUMP JUMPDEST PUSH0 DUP2 SWAP1 POP SWAP2 SWAP1 POP JUMP JUMPDEST PUSH2 0xCEB DUP4 PUSH2 0xCB8 JUMP JUMPDEST PUSH2 0xCFF PUSH2 0xCF7 DUP3 PUSH2 0xCD9 JUMP JUMPDEST DUP5 DUP5 SLOAD PUSH2 0xC5E JUMP JUMPDEST DUP3 SSTORE POP POP POP POP JUMP JUMPDEST PUSH0 SWAP1 JUMP JUMPDEST PUSH2 0xD13 PUSH2 0xD07 JUMP JUMPDEST PUSH2 0xD1E DUP2 DUP5 DUP5 PUSH2 0xCE2 JUMP JUMPDEST POP POP POP JUMP JUMPDEST JUMPDEST DUP2 DUP2 LT ISZERO PUSH2 0xD41 JUMPI PUSH2 0xD36 PUSH0 DUP3 PUSH2 0xD0B JUMP JUMPDEST PUSH1 0x1 DUP2 ADD SWAP1 POP PUSH2 0xD24 JUMP JUMPDEST POP POP JUMP JUMPDEST PUSH1 0x1F DUP3 GT ISZERO PUSH2 0xD86 JUMPI PUSH2 0xD57 DUP2 PUSH2 0xC31 JUMP JUMPDEST PUSH2 0xD60 DUP5 PUSH2 0xC43 JUMP JUMPDEST DUP2 ADD PUSH1 0x20 DUP6 LT ISZERO PUSH2 0xD6F JUMPI DUP2 SWAP1 POP JUMPDEST PUSH2 0xD83 PUSH2 0xD7B DUP6 PUSH2 0xC43 JUMP JUMPDEST DUP4 ADD DUP3 PUSH2 0xD23 JUMP JUMPDEST POP POP JUMPDEST POP POP POP JUMP JUMPDEST PUSH0 DUP3 DUP3 SHR SWAP1 POP SWAP3 SWAP2 POP POP JUMP JUMPDEST PUSH0 PUSH2 0xDA6 PUSH0 NOT DUP5 PUSH1 0x8 MUL PUSH2 0xD8B JUMP JUMPDEST NOT DUP1 DUP4 AND SWAP2 POP POP SWAP3 SWAP2 POP POP JUMP JUMPDEST PUSH0 PUSH2 0xDBE DUP4 DUP4 PUSH2 0xD97 JUMP JUMPDEST SWAP2 POP DUP3 PUSH1 0x2 MUL DUP3 OR SWAP1 POP SWAP3 SWAP2 POP POP JUMP JUMPDEST PUSH2 0xDD7 DUP3 PUSH2 0x7AD JUMP JUMPDEST PUSH8 0xFFFFFFFFFFFFFFFF DUP2 GT ISZERO PUSH2 0xDF0 JUMPI PUSH2 0xDEF PUSH2 0xC04 JUMP JUMPDEST JUMPDEST PUSH2 0xDFA DUP3 SLOAD PUSH2 0xB18 JUMP JUMPDEST PUSH2 0xE05 DUP3 DUP3 DUP6 PUSH2 0xD45 JUMP JUMPDEST PUSH0 PUSH1 0x20 SWAP1 POP PUSH1 0x1F DUP4 GT PUSH1 0x1 DUP2 EQ PUSH2 0xE36 JUMPI PUSH0 DUP5 ISZERO PUSH2 0xE24 JUMPI DUP3 DUP8 ADD MLOAD SWAP1 POP JUMPDEST PUSH2 0xE2E DUP6 DUP3 PUSH2 0xDB3 JUMP JUMPDEST DUP7 SSTORE POP PUSH2 0xE95 JUMP JUMPDEST PUSH1 0x1F NOT DUP5 AND PUSH2 0xE44 DUP7 PUSH2 0xC31 JUMP JUMPDEST PUSH0 JUMPDEST DUP3 DUP2 LT ISZERO PUSH2 0xE6B JUMPI DUP5 DUP10 ADD MLOAD DUP3 SSTORE PUSH1 0x1 DUP3 ADD SWAP2 POP PUSH1 0x20 DUP6 ADD SWAP5 POP PUSH1 0x20 DUP2 ADD SWAP1 POP PUSH2 0xE46 JUMP JUMPDEST DUP7 DUP4 LT ISZERO PUSH2 0xE88 JUMPI DUP5 DUP10 ADD MLOAD PUSH2 0xE84 PUSH1 0x1F DUP10 AND DUP3 PUSH2 0xD97 JUMP JUMPDEST DUP4 SSTORE POP JUMPDEST PUSH1 0x1 PUSH1 0x2 DUP9 MUL ADD DUP9 SSTORE POP POP POP JUMPDEST POP POP POP POP POP POP JUMP JUMPDEST PUSH0 PUSH2 0xEA8 DUP4 DUP6 PUSH2 0x7B7 JUMP JUMPDEST SWAP4 POP PUSH2 0xEB5 DUP4 DUP6 DUP5 PUSH2 0xB52 JUMP JUMPDEST PUSH2 0xEBE DUP4 PUSH2 0x7EF JUMP JUMPDEST DUP5 ADD SWAP1 POP SWAP4 SWAP3 POP POP POP JUMP JUMPDEST PUSH0 PUSH1 0x40 DUP3 ADD SWAP1 POP DUP2 DUP2 SUB PUSH0 DUP4 ADD MSTORE PUSH2 0xEE2 DUP2 DUP6 DUP8 PUSH2 0xE9D JUMP JUMPDEST SWAP1 POP PUSH2 0xEF1 PUSH1 0x20 DUP4 ADD DUP5 PUSH2 0x87F JUMP JUMPDEST SWAP5 SWAP4 POP POP POP POP JUMP INVALID LOG2 PUSH5 0x6970667358 0x22 SLT KECCAK256 CALLDATACOPY 0xE9 SWAP1 PUSH15 0x465BA66E31CD05FBE195F258BF36EF 0xC5 0xBD DUP11 PUSH20 0x9841662E12DC819A1964736F6C63430008140033 "
		},
		"gasEstimates": {
			"creation": {
				"codeDepositCost": "777400",
				"executionCost": "810",
				"totalCost": "778210"
			},
			"external": {
				"documents(bytes32)": "infinite",
				"getHash(string)": "infinite",
				"issueDocument(bytes32,string)": "infinite",
				"issueDocumentFromString(string,string)": "infinite",
				"verifyDocument(bytes32)": "infinite"
			}
		},
		"methodIdentifiers": {
			"documents(bytes32)": "2b2805db",
			"getHash(string)": "5b6beeb9",
			"issueDocument(bytes32,string)": "72b1e763",
			"issueDocumentFromString(string,string)": "611e7cf8",
			"verifyDocument(bytes32)": "fe35089f"
		}
	},
	"abi": [
		{
			"anonymous": false,
			"inputs": [
				{
					"indexed": true,
					"internalType": "bytes32",
					"name": "docHash",
					"type": "bytes32"
				},
				{
					"indexed": false,
					"internalType": "string",
					"name": "serial",
					"type": "string"
				},
				{
					"indexed": true,
					"internalType": "address",
					"name": "issuer",
					"type": "address"
				},
				{
					"indexed": false,
					"internalType": "uint256",
					"name": "timestamp",
					"type": "uint256"
				}
			],
			"name": "DocumentIssued",
			"type": "event"
		},
		{
			"anonymous": false,
			"inputs": [
				{
					"indexed": true,
					"internalType": "bytes32",
					"name": "docHash",
					"type": "bytes32"
				}
			],
			"name": "DocumentRevoked",
			"type": "event"
		},
		{
			"inputs": [
				{
					"internalType": "bytes32",
					"name": "",
					"type": "bytes32"
				}
			],
			"name": "documents",
			"outputs": [
				{
					"internalType": "string",
					"name": "serial",
					"type": "string"
				},
				{
					"internalType": "address",
					"name": "issuer",
					"type": "address"
				},
				{
					"internalType": "uint256",
					"name": "timestamp",
					"type": "uint256"
				},
				{
					"internalType": "bool",
					"name": "isValid",
					"type": "bool"
				}
			],
			"stateMutability": "view",
			"type": "function"
		},
		{
			"inputs": [
				{
					"internalType": "string",
					"name": "data",
					"type": "string"
				}
			],
			"name": "getHash",
			"outputs": [
				{
					"internalType": "bytes32",
					"name": "",
					"type": "bytes32"
				}
			],
			"stateMutability": "pure",
			"type": "function"
		},
		{
			"inputs": [
				{
					"internalType": "bytes32",
					"name": "docHash",
					"type": "bytes32"
				},
				{
					"internalType": "string",
					"name": "serial",
					"type": "string"
				}
			],
			"name": "issueDocument",
			"outputs": [],
			"stateMutability": "nonpayable",
			"type": "function"
		},
		{
			"inputs": [
				{
					"internalType": "string",
					"name": "data",
					"type": "string"
				},
				{
					"internalType": "string",
					"name": "serial",
					"type": "string"
				}
			],
			"name": "issueDocumentFromString",
			"outputs": [],
			"stateMutability": "nonpayable",
			"type": "function"
		},
		{
			"inputs": [
				{
					"internalType": "bytes32",
					"name": "docHash",
					"type": "bytes32"
				}
			],
			"name": "verifyDocument",
			"outputs": [
				{
					"internalType": "bool",
					"name": "isValid",
					"type": "bool"
				},
				{
					"internalType": "string",
					"name": "serial",
					"type": "string"
				},
				{
					"internalType": "address",
					"name": "issuer",
					"type": "address"
				},
				{
					"internalType": "uint256",
					"name": "timestamp",
					"type": "uint256"
				}
			],
			"stateMutability": "view",
			"type": "function"
		}
	]
}